{
  "contractName": "Article",
  "abi": [
    {
      "inputs": [
        {
          "internalType": "bytes",
          "name": "_publicKey",
          "type": "bytes"
        },
        {
          "internalType": "uint256",
          "name": "_price",
          "type": "uint256"
        }
      ],
      "stateMutability": "nonpayable",
      "type": "constructor"
    },
    {
      "inputs": [
        {
          "internalType": "uint256",
          "name": "_price",
          "type": "uint256"
        }
      ],
      "name": "setPrice",
      "outputs": [],
      "stateMutability": "nonpayable",
      "type": "function"
    },
    {
      "inputs": [],
      "name": "getPrice",
      "outputs": [
        {
          "internalType": "uint256",
          "name": "",
          "type": "uint256"
        }
      ],
      "stateMutability": "view",
      "type": "function"
    },
    {
      "inputs": [],
      "name": "getSeller",
      "outputs": [
        {
          "internalType": "address payable",
          "name": "",
          "type": "address"
        }
      ],
      "stateMutability": "view",
      "type": "function"
    },
    {
      "inputs": [],
      "name": "getPublicKey",
      "outputs": [
        {
          "internalType": "bytes",
          "name": "",
          "type": "bytes"
        }
      ],
      "stateMutability": "view",
      "type": "function"
    }
  ],
  "bytecode": "0x60a06040523480156200001157600080fd5b50604051620008343803806200083483398181016040528101906200003791906200031b565b81600090805190602001906200004f92919062000093565b50806001819055503273ffffffffffffffffffffffffffffffffffffffff1660808173ffffffffffffffffffffffffffffffffffffffff16815250505050620003e5565b828054620000a190620003b0565b90600052602060002090601f016020900481019282620000c5576000855562000111565b82601f10620000e057805160ff191683800117855562000111565b8280016001018555821562000111579182015b8281111562000110578251825591602001919060010190620000f3565b5b50905062000120919062000124565b5090565b5b808211156200013f57600081600090555060010162000125565b5090565b6000604051905090565b600080fd5b600080fd5b600080fd5b600080fd5b6000601f19601f8301169050919050565b7f4e487b7100000000000000000000000000000000000000000000000000000000600052604160045260246000fd5b620001ac8262000161565b810181811067ffffffffffffffff82111715620001ce57620001cd62000172565b5b80604052505050565b6000620001e362000143565b9050620001f18282620001a1565b919050565b600067ffffffffffffffff82111562000214576200021362000172565b5b6200021f8262000161565b9050602081019050919050565b60005b838110156200024c5780820151818401526020810190506200022f565b838111156200025c576000848401525b50505050565b6000620002796200027384620001f6565b620001d7565b9050828152602081018484840111156200029857620002976200015c565b5b620002a58482856200022c565b509392505050565b600082601f830112620002c557620002c462000157565b5b8151620002d784826020860162000262565b91505092915050565b6000819050919050565b620002f581620002e0565b81146200030157600080fd5b50565b6000815190506200031581620002ea565b92915050565b600080604083850312156200033557620003346200014d565b5b600083015167ffffffffffffffff81111562000356576200035562000152565b5b6200036485828601620002ad565b9250506020620003778582860162000304565b9150509250929050565b7f4e487b7100000000000000000000000000000000000000000000000000000000600052602260045260246000fd5b60006002820490506001821680620003c957607f821691505b602082108103620003df57620003de62000381565b5b50919050565b60805161042c620004086000396000818161015b01526101c9015261042c6000f3fe608060405234801561001057600080fd5b506004361061004c5760003560e01c80632e3344521461005157806391b7f5ed1461006f57806398d5fdca1461008b578063dbd0e1b6146100a9575b600080fd5b6100596100c7565b6040516100669190610286565b60405180910390f35b610089600480360381019061008491906102e3565b610159565b005b6100936101bb565b6040516100a0919061031f565b60405180910390f35b6100b16101c5565b6040516100be919061037b565b60405180910390f35b6060600080546100d6906103c5565b80601f0160208091040260200160405190810160405280929190818152602001828054610102906103c5565b801561014f5780601f106101245761010080835404028352916020019161014f565b820191906000526020600020905b81548152906001019060200180831161013257829003601f168201915b5050505050905090565b7f000000000000000000000000000000000000000000000000000000000000000073ffffffffffffffffffffffffffffffffffffffff163273ffffffffffffffffffffffffffffffffffffffff16146101b157600080fd5b8060018190555050565b6000600154905090565b60007f0000000000000000000000000000000000000000000000000000000000000000905090565b600081519050919050565b600082825260208201905092915050565b60005b8381101561022757808201518184015260208101905061020c565b83811115610236576000848401525b50505050565b6000601f19601f8301169050919050565b6000610258826101ed565b61026281856101f8565b9350610272818560208601610209565b61027b8161023c565b840191505092915050565b600060208201905081810360008301526102a0818461024d565b905092915050565b600080fd5b6000819050919050565b6102c0816102ad565b81146102cb57600080fd5b50565b6000813590506102dd816102b7565b92915050565b6000602082840312156102f9576102f86102a8565b5b6000610307848285016102ce565b91505092915050565b610319816102ad565b82525050565b60006020820190506103346000830184610310565b92915050565b600073ffffffffffffffffffffffffffffffffffffffff82169050919050565b60006103658261033a565b9050919050565b6103758161035a565b82525050565b6000602082019050610390600083018461036c565b92915050565b7f4e487b7100000000000000000000000000000000000000000000000000000000600052602260045260246000fd5b600060028204905060018216806103dd57607f821691505b6020821081036103f0576103ef610396565b5b5091905056fea26469706673582212209110bbcfa6cf81b1ddee6f053836c807b2d7444abb1d129d79592f1222ad29c464736f6c634300080d0033",
  "immutableReferences": {
    "1406": [
      {
        "length": 32,
        "start": 347
      },
      {
        "length": 32,
        "start": 457
      }
    ]
  },
  "source": "pragma solidity ^0.8.0;\n\ncontract Article {\n    bytes publicKey;\n    address payable immutable seller;\n    uint256 price;\n\n    constructor(bytes memory _publicKey, uint256 _price) {\n        publicKey = _publicKey;\n        price = _price;\n        seller = payable(tx.origin);\n    }\n\n    modifier onlySeller() {\n        require(tx.origin == seller);\n        _;\n    }\n\n    function setPrice(uint256 _price) public onlySeller {\n        price = _price;\n    }\n\n    function getPrice() public view returns (uint256) {\n        return price;\n    }\n\n    function getSeller() public view returns (address payable) {\n        return seller;\n    }\n\n    function getPublicKey() public view returns (bytes memory) {\n        return publicKey;\n    }\n}\n",
  "sourcePath": "/home/guillaume/Projects/NFSblock/contracts/Article.sol",
  "compiler": {
    "name": "solc",
    "version": "0.8.13+commit.abaa5c0e.Emscripten.clang"
  },
  "schemaVersion": "3.4.10",
  "updatedAt": "2022-11-15T19:20:05.833Z",
  "networkType": "ethereum",
  "devdoc": {
    "kind": "dev",
    "methods": {},
    "version": 1
  },
  "userdoc": {
    "kind": "user",
    "methods": {},
    "version": 1
  }
}