{
  "contractName": "Marketplace",
  "abi": [
    {
      "inputs": [
        {
          "internalType": "bytes32",
          "name": "",
          "type": "bytes32"
        }
      ],
      "name": "exchanges",
      "outputs": [
        {
          "internalType": "contract Exchange",
          "name": "",
          "type": "address"
        }
      ],
      "stateMutability": "view",
      "type": "function",
      "constant": true
    },
    {
      "inputs": [
        {
          "internalType": "address",
          "name": "article",
          "type": "address"
        },
        {
          "internalType": "uint256",
          "name": "fees",
          "type": "uint256"
        },
        {
          "internalType": "bytes",
          "name": "buyerPubKey",
          "type": "bytes"
        }
      ],
      "name": "requestBuyKey",
      "outputs": [],
      "stateMutability": "nonpayable",
      "type": "function"
    },
    {
      "inputs": [],
      "name": "getAllExchanges",
      "outputs": [
        {
          "internalType": "contract Exchange[]",
          "name": "",
          "type": "address[]"
        }
      ],
      "stateMutability": "view",
      "type": "function",
      "constant": true
    }
  ],
  "bytecode": "0x608060405234801561001057600080fd5b50612ad3806100206000396000f3fe60806040523480156200001157600080fd5b5060043610620000465760003560e01c806337c03fb6146200004b57806363dae84c146200006d578063d482dda6146200008d575b600080fd5b62000055620000c3565b60405162000064919062000462565b60405180910390f35b6200008b60048036038101906200008591906200067c565b620001ee565b005b620000ab6004803603810190620000a5919062000732565b620002d9565b604051620000ba919062000775565b60405180910390f35b6060600060018054905067ffffffffffffffff811115620000e957620000e862000535565b5b604051908082528060200260200182016040528015620001185781602001602082028036833780820191505090505b50905060005b600180549050811015620001e6576000806001838154811062000146576200014562000792565b5b9060005260206000200154815260200190815260200160002060009054906101000a900473ffffffffffffffffffffffffffffffffffffffff1682828151811062000196576200019562000792565b5b602002602001019073ffffffffffffffffffffffffffffffffffffffff16908173ffffffffffffffffffffffffffffffffffffffff16815250508080620001dd90620007f0565b9150506200011e565b508091505090565b60008333604051602001620002059291906200088d565b604051602081830303815290604052805190602001209050600181908060018154018082558091505060019003906000526020600020016000909190919091505583838360405162000257906200030c565b620002659392919062000972565b604051809103906000f08015801562000282573d6000803e3d6000fd5b5060008083815260200190815260200160002060006101000a81548173ffffffffffffffffffffffffffffffffffffffff021916908373ffffffffffffffffffffffffffffffffffffffff16021790555050505050565b60006020528060005260406000206000915054906101000a900473ffffffffffffffffffffffffffffffffffffffff1681565b6120e780620009b783390190565b600081519050919050565b600082825260208201905092915050565b6000819050602082019050919050565b600073ffffffffffffffffffffffffffffffffffffffff82169050919050565b6000819050919050565b6000620003916200038b620003858462000346565b62000366565b62000346565b9050919050565b6000620003a58262000370565b9050919050565b6000620003b98262000398565b9050919050565b620003cb81620003ac565b82525050565b6000620003df8383620003c0565b60208301905092915050565b6000602082019050919050565b600062000405826200031a565b62000411818562000325565b93506200041e8362000336565b8060005b8381101562000455578151620004398882620003d1565b97506200044683620003eb565b92505060018101905062000422565b5085935050505092915050565b600060208201905081810360008301526200047e8184620003f8565b905092915050565b6000604051905090565b600080fd5b600080fd5b6000620004a78262000346565b9050919050565b620004b9816200049a565b8114620004c557600080fd5b50565b600081359050620004d981620004ae565b92915050565b6000819050919050565b620004f481620004df565b81146200050057600080fd5b50565b6000813590506200051481620004e9565b92915050565b600080fd5b600080fd5b6000601f19601f8301169050919050565b7f4e487b7100000000000000000000000000000000000000000000000000000000600052604160045260246000fd5b6200056f8262000524565b810181811067ffffffffffffffff8211171562000591576200059062000535565b5b80604052505050565b6000620005a662000486565b9050620005b4828262000564565b919050565b600067ffffffffffffffff821115620005d757620005d662000535565b5b620005e28262000524565b9050602081019050919050565b82818337600083830152505050565b6000620006156200060f84620005b9565b6200059a565b9050828152602081018484840111156200063457620006336200051f565b5b62000641848285620005ef565b509392505050565b600082601f8301126200066157620006606200051a565b5b813562000673848260208601620005fe565b91505092915050565b60008060006060848603121562000698576200069762000490565b5b6000620006a886828701620004c8565b9350506020620006bb8682870162000503565b925050604084013567ffffffffffffffff811115620006df57620006de62000495565b5b620006ed8682870162000649565b9150509250925092565b6000819050919050565b6200070c81620006f7565b81146200071857600080fd5b50565b6000813590506200072c8162000701565b92915050565b6000602082840312156200074b576200074a62000490565b5b60006200075b848285016200071b565b91505092915050565b6200076f81620003ac565b82525050565b60006020820190506200078c600083018462000764565b92915050565b7f4e487b7100000000000000000000000000000000000000000000000000000000600052603260045260246000fd5b7f4e487b7100000000000000000000000000000000000000000000000000000000600052601160045260246000fd5b6000620007fd82620004df565b91507fffffffffffffffffffffffffffffffffffffffffffffffffffffffffffffffff8203620008325762000831620007c1565b5b600182019050919050565b60008160601b9050919050565b600062000857826200083d565b9050919050565b60006200086b826200084a565b9050919050565b6200088762000881826200049a565b6200085e565b82525050565b60006200089b828562000872565b601482019150620008ad828462000872565b6014820191508190509392505050565b620008c8816200049a565b82525050565b620008d981620004df565b82525050565b600081519050919050565b600082825260208201905092915050565b60005b838110156200091b578082015181840152602081019050620008fe565b838111156200092b576000848401525b50505050565b60006200093e82620008df565b6200094a8185620008ea565b93506200095c818560208601620008fb565b620009678162000524565b840191505092915050565b6000606082019050620009896000830186620008bd565b620009986020830185620008ce565b8181036040830152620009ac818462000931565b905094935050505056fe60c0604052604051620020e7380380620020e783398181016040528101906200002991906200046e565b8160028473ffffffffffffffffffffffffffffffffffffffff166398d5fdca6040518163ffffffff1660e01b8152600401602060405180830381865afa15801562000078573d6000803e3d6000fd5b505050506040513d601f19601f820116820180604052508101906200009e9190620004e9565b620000aa91906200054a565b620000b69190620005ab565b3414620000c257600080fd5b816002819055508273ffffffffffffffffffffffffffffffffffffffff1660808173ffffffffffffffffffffffffffffffffffffffff16815250503273ffffffffffffffffffffffffffffffffffffffff1660a08173ffffffffffffffffffffffffffffffffffffffff168152505080600090805190602001906200014992919062000181565b506000600560006101000a81548160ff0219169083600381111562000173576200017262000608565b5b02179055505050506200069b565b8280546200018f9062000666565b90600052602060002090601f016020900481019282620001b35760008555620001ff565b82601f10620001ce57805160ff1916838001178555620001ff565b82800160010185558215620001ff579182015b82811115620001fe578251825591602001919060010190620001e1565b5b5090506200020e919062000212565b5090565b5b808211156200022d57600081600090555060010162000213565b5090565b6000604051905090565b600080fd5b600080fd5b600073ffffffffffffffffffffffffffffffffffffffff82169050919050565b6000620002728262000245565b9050919050565b620002848162000265565b81146200029057600080fd5b50565b600081519050620002a48162000279565b92915050565b6000819050919050565b620002bf81620002aa565b8114620002cb57600080fd5b50565b600081519050620002df81620002b4565b92915050565b600080fd5b600080fd5b6000601f19601f8301169050919050565b7f4e487b7100000000000000000000000000000000000000000000000000000000600052604160045260246000fd5b6200033a82620002ef565b810181811067ffffffffffffffff821117156200035c576200035b62000300565b5b80604052505050565b60006200037162000231565b90506200037f82826200032f565b919050565b600067ffffffffffffffff821115620003a257620003a162000300565b5b620003ad82620002ef565b9050602081019050919050565b60005b83811015620003da578082015181840152602081019050620003bd565b83811115620003ea576000848401525b50505050565b600062000407620004018462000384565b62000365565b905082815260208101848484011115620004265762000425620002ea565b5b62000433848285620003ba565b509392505050565b600082601f830112620004535762000452620002e5565b5b815162000465848260208601620003f0565b91505092915050565b6000806000606084860312156200048a57620004896200023b565b5b60006200049a8682870162000293565b9350506020620004ad86828701620002ce565b925050604084015167ffffffffffffffff811115620004d157620004d062000240565b5b620004df868287016200043b565b9150509250925092565b6000602082840312156200050257620005016200023b565b5b60006200051284828501620002ce565b91505092915050565b7f4e487b7100000000000000000000000000000000000000000000000000000000600052601160045260246000fd5b60006200055782620002aa565b91506200056483620002aa565b9250817fffffffffffffffffffffffffffffffffffffffffffffffffffffffffffffffff0483118215151615620005a0576200059f6200051b565b5b828202905092915050565b6000620005b882620002aa565b9150620005c583620002aa565b9250827fffffffffffffffffffffffffffffffffffffffffffffffffffffffffffffffff03821115620005fd57620005fc6200051b565b5b828201905092915050565b7f4e487b7100000000000000000000000000000000000000000000000000000000600052602160045260246000fd5b7f4e487b7100000000000000000000000000000000000000000000000000000000600052602260045260246000fd5b600060028204905060018216806200067f57607f821691505b60208210810362000695576200069462000637565b5b50919050565b60805160a0516119ee620006f9600039600081816103e80152818161040e015281816106840152818161079a0152818161092a0152610a53015260008181610539015281816108e001528181610ae90152610cb501526119ee6000f3fe6080604052600436106100e15760003560e01c8063979e8a4b1161007f578063c151065111610059578063c151065114610284578063ea8a1af0146102af578063f7e83aee146102c6578063f8e3237414610303576100e8565b8063979e8a4b146102035780639af1d35a1461022e578063ab1633c214610259576100e8565b8063603daf9a116100bb578063603daf9a1461016b5780636901f668146101965780637150d8ae146101ad5780637d4ccb14146101d8576100e8565b8063200d2ed2146100ea5780634e69d560146101155780635794da9e14610140576100e8565b366100e857005b005b3480156100f657600080fd5b506100ff61032c565b60405161010c91906111a2565b60405180910390f35b34801561012157600080fd5b5061012a61033f565b60405161013791906111a2565b60405180910390f35b34801561014c57600080fd5b50610155610356565b6040516101629190611256565b60405180910390f35b34801561017757600080fd5b506101806103e4565b60405161018d91906112b9565b60405180910390f35b3480156101a257600080fd5b506101ab61040c565b005b3480156101b957600080fd5b506101c2610798565b6040516101cf91906112b9565b60405180910390f35b3480156101e457600080fd5b506101ed6107bc565b6040516101fa9190611256565b60405180910390f35b34801561020f57600080fd5b5061021861084a565b6040516102259190611256565b60405180910390f35b34801561023a57600080fd5b506102436108d8565b60405161025091906112ed565b60405180910390f35b34801561026557600080fd5b5061026e6108de565b60405161027b9190611329565b60405180910390f35b34801561029057600080fd5b50610299610902565b6040516102a691906112b9565b60405180910390f35b3480156102bb57600080fd5b506102c4610928565b005b3480156102d257600080fd5b506102ed60048036038101906102e8919061148d565b610ae5565b6040516102fa9190611520565b60405180910390f35b34801561030f57600080fd5b5061032a6004803603810190610325919061148d565b610bcb565b005b600560009054906101000a900460ff1681565b6000600560009054906101000a900460ff16905090565b600380546103639061156a565b80601f016020809104026020016040519081016040528092919081815260200182805461038f9061156a565b80156103dc5780601f106103b1576101008083540402835291602001916103dc565b820191906000526020600020905b8154815290600101906020018083116103bf57829003601f168201915b505050505081565b60007f0000000000000000000000000000000000000000000000000000000000000000905090565b7f000000000000000000000000000000000000000000000000000000000000000073ffffffffffffffffffffffffffffffffffffffff163373ffffffffffffffffffffffffffffffffffffffff161461046457600080fd5b600060038111156104785761047761112b565b5b600560009054906101000a900460ff16600381111561049a5761049961112b565b5b146104a457600080fd5b6000600380546104b39061156a565b9050036104bf57600080fd5b6000600480546104ce9061156a565b9050036104da57600080fd5b600073ffffffffffffffffffffffffffffffffffffffff16600160009054906101000a900473ffffffffffffffffffffffffffffffffffffffff1673ffffffffffffffffffffffffffffffffffffffff160361053557600080fd5b60007f0000000000000000000000000000000000000000000000000000000000000000905060008173ffffffffffffffffffffffffffffffffffffffff166398d5fdca6040518163ffffffff1660e01b8152600401602060405180830381865afa1580156105a7573d6000803e3d6000fd5b505050506040513d601f19601f820116820180604052508101906105cb91906115c7565b90508173ffffffffffffffffffffffffffffffffffffffff1663dbd0e1b66040518163ffffffff1660e01b8152600401602060405180830381865afa158015610618573d6000803e3d6000fd5b505050506040513d601f19601f8201168201806040525081019061063c9190611620565b73ffffffffffffffffffffffffffffffffffffffff166108fc829081150290604051600060405180830381858888f19350505050158015610681573d6000803e3d6000fd5b507f000000000000000000000000000000000000000000000000000000000000000073ffffffffffffffffffffffffffffffffffffffff166108fc829081150290604051600060405180830381858888f193505050501580156106e8573d6000803e3d6000fd5b50600160009054906101000a900473ffffffffffffffffffffffffffffffffffffffff1673ffffffffffffffffffffffffffffffffffffffff166108fc826002610732919061167c565b4761073d91906116d6565b9081150290604051600060405180830381858888f19350505050158015610768573d6000803e3d6000fd5b506002600560006101000a81548160ff0219169083600381111561078f5761078e61112b565b5b02179055505050565b7f000000000000000000000000000000000000000000000000000000000000000081565b600080546107c99061156a565b80601f01602080910402602001604051908101604052809291908181526020018280546107f59061156a565b80156108425780601f1061081757610100808354040283529160200191610842565b820191906000526020600020905b81548152906001019060200180831161082557829003601f168201915b505050505081565b600480546108579061156a565b80601f01602080910402602001604051908101604052809291908181526020018280546108839061156a565b80156108d05780601f106108a5576101008083540402835291602001916108d0565b820191906000526020600020905b8154815290600101906020018083116108b357829003601f168201915b505050505081565b60025481565b7f000000000000000000000000000000000000000000000000000000000000000081565b600160009054906101000a900473ffffffffffffffffffffffffffffffffffffffff1681565b7f000000000000000000000000000000000000000000000000000000000000000073ffffffffffffffffffffffffffffffffffffffff163373ffffffffffffffffffffffffffffffffffffffff161461098057600080fd5b600060038111156109945761099361112b565b5b600560009054906101000a900460ff1660038111156109b6576109b561112b565b5b146109c057600080fd5b6000600380546109cf9061156a565b9050146109db57600080fd5b6000600480546109ea9061156a565b9050146109f657600080fd5b600073ffffffffffffffffffffffffffffffffffffffff16600160009054906101000a900473ffffffffffffffffffffffffffffffffffffffff1673ffffffffffffffffffffffffffffffffffffffff1614610a5157600080fd5b7f000000000000000000000000000000000000000000000000000000000000000073ffffffffffffffffffffffffffffffffffffffff166108fc479081150290604051600060405180830381858888f19350505050158015610ab7573d6000803e3d6000fd5b506001600560006101000a81548160ff02191690836003811115610ade57610add61112b565b5b0217905550565b60007f000000000000000000000000000000000000000000000000000000000000000073ffffffffffffffffffffffffffffffffffffffff16632e3344526040518163ffffffff1660e01b8152600401600060405180830381865afa158015610b52573d6000803e3d6000fd5b505050506040513d6000823e3d601f19601f82011682018060405250810190610b7b919061177a565b8051906020012060601c73ffffffffffffffffffffffffffffffffffffffff16610bac848051906020012084610dc8565b73ffffffffffffffffffffffffffffffffffffffff1614905092915050565b60006003811115610bdf57610bde61112b565b5b600560009054906101000a900460ff166003811115610c0157610c0061112b565b5b14610c0b57600080fd5b600060038054610c1a9061156a565b905014610c2657600080fd5b600060048054610c359061156a565b905014610c4157600080fd5b600073ffffffffffffffffffffffffffffffffffffffff16600160009054906101000a900473ffffffffffffffffffffffffffffffffffffffff1673ffffffffffffffffffffffffffffffffffffffff1614610c9c57600080fd5b6000610caf838051906020012083610dc8565b905060007f000000000000000000000000000000000000000000000000000000000000000073ffffffffffffffffffffffffffffffffffffffff16632e3344526040518163ffffffff1660e01b8152600401600060405180830381865afa158015610d1e573d6000803e3d6000fd5b505050506040513d6000823e3d601f19601f82011682018060405250810190610d47919061177a565b8051906020012060601c90508360039080519060200190610d69929190611088565b508260049080519060200190610d80929190611088565b5033600160006101000a81548173ffffffffffffffffffffffffffffffffffffffff021916908373ffffffffffffffffffffffffffffffffffffffff16021790555050505050565b6000806000610dd78585610def565b91509150610de481610e40565b819250505092915050565b6000806041835103610e305760008060006020860151925060408601519150606086015160001a9050610e2487828585610fa6565b94509450505050610e39565b60006002915091505b9250929050565b60006004811115610e5457610e5361112b565b5b816004811115610e6757610e6661112b565b5b0315610fa35760016004811115610e8157610e8061112b565b5b816004811115610e9457610e9361112b565b5b03610ed4576040517f08c379a0000000000000000000000000000000000000000000000000000000008152600401610ecb90611820565b60405180910390fd5b60026004811115610ee857610ee761112b565b5b816004811115610efb57610efa61112b565b5b03610f3b576040517f08c379a0000000000000000000000000000000000000000000000000000000008152600401610f329061188c565b60405180910390fd5b60036004811115610f4f57610f4e61112b565b5b816004811115610f6257610f6161112b565b5b03610fa2576040517f08c379a0000000000000000000000000000000000000000000000000000000008152600401610f999061191e565b60405180910390fd5b5b50565b6000807f7fffffffffffffffffffffffffffffff5d576e7357a4501ddfe92f46681b20a08360001c1115610fe157600060039150915061107f565b6000600187878787604051600081526020016040526040516110069493929190611973565b6020604051602081039080840390855afa158015611028573d6000803e3d6000fd5b505050602060405103519050600073ffffffffffffffffffffffffffffffffffffffff168173ffffffffffffffffffffffffffffffffffffffff16036110765760006001925092505061107f565b80600092509250505b94509492505050565b8280546110949061156a565b90600052602060002090601f0160209004810192826110b657600085556110fd565b82601f106110cf57805160ff19168380011785556110fd565b828001600101855582156110fd579182015b828111156110fc5782518255916020019190600101906110e1565b5b50905061110a919061110e565b5090565b5b8082111561112757600081600090555060010161110f565b5090565b7f4e487b7100000000000000000000000000000000000000000000000000000000600052602160045260246000fd5b6004811061116b5761116a61112b565b5b50565b600081905061117c8261115a565b919050565b600061118c8261116e565b9050919050565b61119c81611181565b82525050565b60006020820190506111b76000830184611193565b92915050565b600081519050919050565b600082825260208201905092915050565b60005b838110156111f75780820151818401526020810190506111dc565b83811115611206576000848401525b50505050565b6000601f19601f8301169050919050565b6000611228826111bd565b61123281856111c8565b93506112428185602086016111d9565b61124b8161120c565b840191505092915050565b60006020820190508181036000830152611270818461121d565b905092915050565b600073ffffffffffffffffffffffffffffffffffffffff82169050919050565b60006112a382611278565b9050919050565b6112b381611298565b82525050565b60006020820190506112ce60008301846112aa565b92915050565b6000819050919050565b6112e7816112d4565b82525050565b600060208201905061130260008301846112de565b92915050565b600061131382611278565b9050919050565b61132381611308565b82525050565b600060208201905061133e600083018461131a565b92915050565b6000604051905090565b600080fd5b600080fd5b600080fd5b600080fd5b7f4e487b7100000000000000000000000000000000000000000000000000000000600052604160045260246000fd5b61139a8261120c565b810181811067ffffffffffffffff821117156113b9576113b8611362565b5b80604052505050565b60006113cc611344565b90506113d88282611391565b919050565b600067ffffffffffffffff8211156113f8576113f7611362565b5b6114018261120c565b9050602081019050919050565b82818337600083830152505050565b600061143061142b846113dd565b6113c2565b90508281526020810184848401111561144c5761144b61135d565b5b61145784828561140e565b509392505050565b600082601f83011261147457611473611358565b5b813561148484826020860161141d565b91505092915050565b600080604083850312156114a4576114a361134e565b5b600083013567ffffffffffffffff8111156114c2576114c1611353565b5b6114ce8582860161145f565b925050602083013567ffffffffffffffff8111156114ef576114ee611353565b5b6114fb8582860161145f565b9150509250929050565b60008115159050919050565b61151a81611505565b82525050565b60006020820190506115356000830184611511565b92915050565b7f4e487b7100000000000000000000000000000000000000000000000000000000600052602260045260246000fd5b6000600282049050600182168061158257607f821691505b6020821081036115955761159461153b565b5b50919050565b6115a4816112d4565b81146115af57600080fd5b50565b6000815190506115c18161159b565b92915050565b6000602082840312156115dd576115dc61134e565b5b60006115eb848285016115b2565b91505092915050565b6115fd81611298565b811461160857600080fd5b50565b60008151905061161a816115f4565b92915050565b6000602082840312156116365761163561134e565b5b60006116448482850161160b565b91505092915050565b7f4e487b7100000000000000000000000000000000000000000000000000000000600052601160045260246000fd5b6000611687826112d4565b9150611692836112d4565b9250817fffffffffffffffffffffffffffffffffffffffffffffffffffffffffffffffff04831182151516156116cb576116ca61164d565b5b828202905092915050565b60006116e1826112d4565b91506116ec836112d4565b9250828210156116ff576116fe61164d565b5b828203905092915050565b600061171d611718846113dd565b6113c2565b9050828152602081018484840111156117395761173861135d565b5b6117448482856111d9565b509392505050565b600082601f83011261176157611760611358565b5b815161177184826020860161170a565b91505092915050565b6000602082840312156117905761178f61134e565b5b600082015167ffffffffffffffff8111156117ae576117ad611353565b5b6117ba8482850161174c565b91505092915050565b600082825260208201905092915050565b7f45434453413a20696e76616c6964207369676e61747572650000000000000000600082015250565b600061180a6018836117c3565b9150611815826117d4565b602082019050919050565b60006020820190508181036000830152611839816117fd565b9050919050565b7f45434453413a20696e76616c6964207369676e6174757265206c656e67746800600082015250565b6000611876601f836117c3565b915061188182611840565b602082019050919050565b600060208201905081810360008301526118a581611869565b9050919050565b7f45434453413a20696e76616c6964207369676e6174757265202773272076616c60008201527f7565000000000000000000000000000000000000000000000000000000000000602082015250565b60006119086022836117c3565b9150611913826118ac565b604082019050919050565b60006020820190508181036000830152611937816118fb565b9050919050565b6000819050919050565b6119518161193e565b82525050565b600060ff82169050919050565b61196d81611957565b82525050565b60006080820190506119886000830187611948565b6119956020830186611964565b6119a26040830185611948565b6119af6060830184611948565b9594505050505056fea26469706673582212200a096cf888deefb4b19aabc72e0315b8f376277de49a9ff49ecaf4f4ad43caa064736f6c634300080d0033a2646970667358221220a216c992b6cd38ed1f1101949b555fbb4885b7c1fb0853395cc2d5a1a4c73ad464736f6c634300080d0033",
  "immutableReferences": {},
  "source": "pragma solidity ^0.8.0;\n\n\nimport \"./Exchange.sol\";\n\ncontract Marketplace {\n    //Exchange should be a struct or keep it as a contract ?\n    mapping(bytes32 => Exchange) public exchanges;\n    bytes32[] private _exchangeIds;\n\n    function requestBuyKey(address article, uint256 fees, bytes memory buyerPubKey) public {\n        bytes32 _exchangeId = keccak256(abi.encodePacked(article, msg.sender));\n        _exchangeIds.push(_exchangeId);\n        exchanges[_exchangeId] = new Exchange(article, fees, buyerPubKey);\n    }\n\n    function getAllExchanges() public view returns (Exchange[] memory) {\n        Exchange[] memory _exchanges = new Exchange[](_exchangeIds.length);\n        for (uint i = 0; i < _exchangeIds.length; i++) {\n            _exchanges[i] = exchanges[_exchangeIds[i]];\n        }\n        return _exchanges;\n    }\n\n\n}\n",
  "sourcePath": "/home/guillaume/Projects/NFSblock/contracts/Marketplace.sol",
  "compiler": {
    "name": "solc",
    "version": "0.8.13+commit.abaa5c0e.Emscripten.clang"
  },
  "schemaVersion": "3.4.10",
  "updatedAt": "2022-11-15T19:20:05.848Z",
  "networkType": "ethereum",
  "devdoc": {
    "kind": "dev",
    "methods": {},
    "version": 1
  },
  "userdoc": {
    "kind": "user",
    "methods": {},
    "version": 1
  }
}